{
  "contractName": "Calculator",
  "abi": [
    {
      "constant": true,
      "inputs": [
        {
          "internalType": "int256",
          "name": "x",
          "type": "int256"
        },
        {
          "internalType": "int256",
          "name": "y",
          "type": "int256"
        },
        {
          "internalType": "string",
          "name": "operation",
          "type": "string"
        }
      ],
      "name": "calculate",
      "outputs": [
        {
          "internalType": "int256",
          "name": "",
          "type": "int256"
        }
      ],
      "payable": false,
      "stateMutability": "pure",
      "type": "function"
    }
  ],
  "bytecode": "0x608060405234801561001057600080fd5b506104ec806100206000396000f3fe608060405234801561001057600080fd5b506004361061002b5760003560e01c80638e1d58a314610030575b600080fd5b6100fd6004803603606081101561004657600080fd5b8101908080359060200190929190803590602001909291908035906020019064010000000081111561007757600080fd5b82018360208201111561008957600080fd5b803590602001918460018302840111640100000000831117156100ab57600080fd5b91908080601f016020809104026020016040519081016040528093929190818152602001838380828437600081840152601f19601f820116905080830192505050505050509192919290505050610113565b6040518082815260200191505060405180910390f35b6000806000905060405160200180807f2b00000000000000000000000000000000000000000000000000000000000000815250600101905060405160208183030381529060405280519060200120836040516020018082805190602001908083835b602083106101985780518252602082019150602081019050602083039250610175565b6001836020036101000a0380198251168184511680821785525050505050509050019150506040516020818303038152906040528051906020012014156101df5783850190505b60405160200180807f2d00000000000000000000000000000000000000000000000000000000000000815250600101905060405160208183030381529060405280519060200120836040516020018082805190602001908083835b6020831061025d578051825260208201915060208101905060208303925061023a565b6001836020036101000a0380198251168184511680821785525050505050509050019150506040516020818303038152906040528051906020012014156102a45783850390505b60405160200180807f2f00000000000000000000000000000000000000000000000000000000000000815250600101905060405160208183030381529060405280519060200120836040516020018082805190602001908083835b6020831061032257805182526020820191506020810190506020830392506102ff565b6001836020036101000a0380198251168184511680821785525050505050509050019150506040516020818303038152906040528051906020012014156103e75760008414156103da576040517f08c379a00000000000000000000000000000000000000000000000000000000081526004018080602001828103825260078152602001807f792069732030210000000000000000000000000000000000000000000000000081525060200191505060405180910390fd5b8385816103e357fe5b0590505b60405160200180807f2a00000000000000000000000000000000000000000000000000000000000000815250600101905060405160208183030381529060405280519060200120836040516020018082805190602001908083835b602083106104655780518252602082019150602081019050602083039250610442565b6001836020036101000a0380198251168184511680821785525050505050509050019150506040516020818303038152906040528051906020012014156104ac5783850290505b80915050939250505056fea265627a7a723158203246a6a6ea63e72eb50f87e164152ca74c36b80cef905c1e93e5af8de6bdd4a664736f6c63430005100032",
  "source": "// SPDX-License-Identifier: MIT\r\n\r\npragma solidity >=0.4.0 <=0.8.0;\r\n\r\ncontract Calculator {\r\n\r\n  function calculate (int256 x, int256 y, string memory operation) public pure returns (int256) {\r\n    int result = 0;\r\n    if (keccak256(abi.encodePacked(operation)) == keccak256(abi.encodePacked(\"+\"))){\r\n      result = x + y;\r\n    }\r\n    if (keccak256(abi.encodePacked(operation)) == keccak256(abi.encodePacked(\"-\"))){\r\n      result = x - y;\r\n    }\r\n    if (keccak256(abi.encodePacked(operation)) == keccak256(abi.encodePacked(\"/\"))){\r\n      require (y != 0, \"y is 0!\");\r\n      result = x / y;\r\n    }\r\n    if (keccak256(abi.encodePacked(operation)) == keccak256(abi.encodePacked(\"*\"))){\r\n      result = x * y;\r\n    }\r\n      return result;\r\n  }\r\n}",
  "sourcePath": "C:\\Users\\georg\\Desktop\\Code\\BlockChain\\calculator\\contracts\\Calculator.sol",
  "compiler": {
    "name": "solc",
    "version": "0.5.16+commit.9c3226ce.Emscripten.clang"
  },
  "schemaVersion": "3.0.23",
  "updatedAt": "2020-11-13T13:01:27.559Z",
  "networkType": "ethereum",
  "devdoc": {
    "methods": {}
  },
  "userdoc": {
    "methods": {}
  }
}